{
	"smart_contract/renewContract.sol": {
		"renewContract": {
			"abi": [
				{
					"constant": false,
					"inputs": [],
					"name": "autoRenew",
					"outputs": [],
					"payable": false,
					"stateMutability": "nonpayable",
					"type": "function"
				},
				{
					"constant": false,
					"inputs": [],
					"name": "agreeRenew",
					"outputs": [],
					"payable": false,
					"stateMutability": "nonpayable",
					"type": "function"
				},
				{
					"constant": false,
					"inputs": [],
					"name": "finishContract",
					"outputs": [],
					"payable": false,
					"stateMutability": "nonpayable",
					"type": "function"
				},
				{
					"constant": false,
					"inputs": [],
					"name": "agreeFinish",
					"outputs": [],
					"payable": false,
					"stateMutability": "nonpayable",
					"type": "function"
				},
				{
					"constant": false,
					"inputs": [
						{
							"name": "renewalTime",
							"type": "uint256"
						}
					],
					"name": "renewByConsult",
					"outputs": [],
					"payable": false,
					"stateMutability": "nonpayable",
					"type": "function"
				},
				{
					"constant": false,
					"inputs": [],
					"name": "sendMessage",
					"outputs": [],
					"payable": false,
					"stateMutability": "nonpayable",
					"type": "function"
				}
			],
			"devdoc": {
				"methods": {}
			},
			"evm": {
				"assembly": "    /* \"smart_contract/renewContract.sol\":66:2629  contract renewContract {\r... */\n  mstore(0x40, 0x80)\n    /* \"smart_contract/renewContract.sol\":117:118  0 */\n  0x0\n    /* \"smart_contract/renewContract.sol\":98:118  uint256 ifNotice = 0 */\n  dup1\n  sstore\n    /* \"smart_contract/renewContract.sol\":247:248  0 */\n  0x0\n    /* \"smart_contract/renewContract.sol\":224:248  uint256 ifAgreeRenew = 0 */\n  0x1\n  sstore\n    /* \"smart_contract/renewContract.sol\":279:280  0 */\n  0x0\n    /* \"smart_contract/renewContract.sol\":255:280  uint256 ifAgreeFinish = 0 */\n  0x2\n  sstore\n    /* \"smart_contract/renewContract.sol\":567:575  365 days */\n  0x1e13380\n    /* \"smart_contract/renewContract.sol\":548:575  uint256 duration = 365 days */\n  0x5\n  sstore\n    /* \"smart_contract/renewContract.sol\":66:2629  contract renewContract {\r... */\n  callvalue\n    /* \"--CODEGEN--\":8:17   */\n  dup1\n    /* \"--CODEGEN--\":5:7   */\n  iszero\n  tag_1\n  jumpi\n    /* \"--CODEGEN--\":30:31   */\n  0x0\n    /* \"--CODEGEN--\":27:28   */\n  dup1\n    /* \"--CODEGEN--\":20:32   */\n  revert\n    /* \"--CODEGEN--\":5:7   */\ntag_1:\n    /* \"smart_contract/renewContract.sol\":66:2629  contract renewContract {\r... */\n  pop\n  dataSize(sub_0)\n  dup1\n  dataOffset(sub_0)\n  0x0\n  codecopy\n  0x0\n  return\nstop\n\nsub_0: assembly {\n        /* \"smart_contract/renewContract.sol\":66:2629  contract renewContract {\r... */\n      mstore(0x40, 0x80)\n      jumpi(tag_1, lt(calldatasize, 0x4))\n      calldataload(0x0)\n      0x100000000000000000000000000000000000000000000000000000000\n      swap1\n      div\n      0xffffffff\n      and\n      dup1\n      0x708f35d\n      eq\n      tag_2\n      jumpi\n      dup1\n      0x37260d8e\n      eq\n      tag_3\n      jumpi\n      dup1\n      0x8a5d815e\n      eq\n      tag_4\n      jumpi\n      dup1\n      0xb3a2ff2a\n      eq\n      tag_5\n      jumpi\n      dup1\n      0xd124711d\n      eq\n      tag_6\n      jumpi\n      dup1\n      0xe5aed28a\n      eq\n      tag_7\n      jumpi\n    tag_1:\n      0x0\n      dup1\n      revert\n        /* \"smart_contract/renewContract.sol\":1914:2022  function autoRenew() public checkNoNotice check_landlord_tenant {\r... */\n    tag_2:\n      callvalue\n        /* \"--CODEGEN--\":8:17   */\n      dup1\n        /* \"--CODEGEN--\":5:7   */\n      iszero\n      tag_8\n      jumpi\n        /* \"--CODEGEN--\":30:31   */\n      0x0\n        /* \"--CODEGEN--\":27:28   */\n      dup1\n        /* \"--CODEGEN--\":20:32   */\n      revert\n        /* \"--CODEGEN--\":5:7   */\n    tag_8:\n        /* \"smart_contract/renewContract.sol\":1914:2022  function autoRenew() public checkNoNotice check_landlord_tenant {\r... */\n      pop\n      tag_9\n      jump(tag_10)\n    tag_9:\n      stop\n        /* \"smart_contract/renewContract.sol\":2056:2160  function agreeRenew() public check_landlord_tenant checkNotice validity{\r... */\n    tag_3:\n      callvalue\n        /* \"--CODEGEN--\":8:17   */\n      dup1\n        /* \"--CODEGEN--\":5:7   */\n      iszero\n      tag_11\n      jumpi\n        /* \"--CODEGEN--\":30:31   */\n      0x0\n        /* \"--CODEGEN--\":27:28   */\n      dup1\n        /* \"--CODEGEN--\":20:32   */\n      revert\n        /* \"--CODEGEN--\":5:7   */\n    tag_11:\n        /* \"smart_contract/renewContract.sol\":2056:2160  function agreeRenew() public check_landlord_tenant checkNotice validity{\r... */\n      pop\n      tag_12\n      jump(tag_13)\n    tag_12:\n      stop\n        /* \"smart_contract/renewContract.sol\":2513:2624  function finishContract() public check_landlord  checkIfAgreeFinish {\r... */\n    tag_4:\n      callvalue\n        /* \"--CODEGEN--\":8:17   */\n      dup1\n        /* \"--CODEGEN--\":5:7   */\n      iszero\n      tag_14\n      jumpi\n        /* \"--CODEGEN--\":30:31   */\n      0x0\n        /* \"--CODEGEN--\":27:28   */\n      dup1\n        /* \"--CODEGEN--\":20:32   */\n      revert\n        /* \"--CODEGEN--\":5:7   */\n    tag_14:\n        /* \"smart_contract/renewContract.sol\":2513:2624  function finishContract() public check_landlord  checkIfAgreeFinish {\r... */\n      pop\n      tag_15\n      jump(tag_16)\n    tag_15:\n      stop\n        /* \"smart_contract/renewContract.sol\":2200:2306  function agreeFinish() public check_landlord_tenant checkNotice validity{\r... */\n    tag_5:\n      callvalue\n        /* \"--CODEGEN--\":8:17   */\n      dup1\n        /* \"--CODEGEN--\":5:7   */\n      iszero\n      tag_17\n      jumpi\n        /* \"--CODEGEN--\":30:31   */\n      0x0\n        /* \"--CODEGEN--\":27:28   */\n      dup1\n        /* \"--CODEGEN--\":20:32   */\n      revert\n        /* \"--CODEGEN--\":5:7   */\n    tag_17:\n        /* \"smart_contract/renewContract.sol\":2200:2306  function agreeFinish() public check_landlord_tenant checkNotice validity{\r... */\n      pop\n      tag_18\n      jump(tag_19)\n    tag_18:\n      stop\n        /* \"smart_contract/renewContract.sol\":2358:2485  function renewByConsult(uint256 renewalTime) public checkIfAgreeRenew check_landlord {\r... */\n    tag_6:\n      callvalue\n        /* \"--CODEGEN--\":8:17   */\n      dup1\n        /* \"--CODEGEN--\":5:7   */\n      iszero\n      tag_20\n      jumpi\n        /* \"--CODEGEN--\":30:31   */\n      0x0\n        /* \"--CODEGEN--\":27:28   */\n      dup1\n        /* \"--CODEGEN--\":20:32   */\n      revert\n        /* \"--CODEGEN--\":5:7   */\n    tag_20:\n        /* \"smart_contract/renewContract.sol\":2358:2485  function renewByConsult(uint256 renewalTime) public checkIfAgreeRenew check_landlord {\r... */\n      pop\n      tag_21\n      0x4\n      dup1\n      calldatasize\n      sub\n        /* \"--CODEGEN--\":13:15   */\n      0x20\n        /* \"--CODEGEN--\":8:11   */\n      dup2\n        /* \"--CODEGEN--\":5:16   */\n      lt\n        /* \"--CODEGEN--\":2:4   */\n      iszero\n      tag_22\n      jumpi\n        /* \"--CODEGEN--\":29:30   */\n      0x0\n        /* \"--CODEGEN--\":26:27   */\n      dup1\n        /* \"--CODEGEN--\":19:31   */\n      revert\n        /* \"--CODEGEN--\":2:4   */\n    tag_22:\n        /* \"smart_contract/renewContract.sol\":2358:2485  function renewByConsult(uint256 renewalTime) public checkIfAgreeRenew check_landlord {\r... */\n      dup2\n      add\n      swap1\n      dup1\n      dup1\n      calldataload\n      swap1\n      0x20\n      add\n      swap1\n      swap3\n      swap2\n      swap1\n      pop\n      pop\n      pop\n      jump(tag_23)\n    tag_21:\n      stop\n        /* \"smart_contract/renewContract.sol\":1772:1879  function sendMessage() public check_landlord_tenant checkNoticeTime validity{\r... */\n    tag_7:\n      callvalue\n        /* \"--CODEGEN--\":8:17   */\n      dup1\n        /* \"--CODEGEN--\":5:7   */\n      iszero\n      tag_24\n      jumpi\n        /* \"--CODEGEN--\":30:31   */\n      0x0\n        /* \"--CODEGEN--\":27:28   */\n      dup1\n        /* \"--CODEGEN--\":20:32   */\n      revert\n        /* \"--CODEGEN--\":5:7   */\n    tag_24:\n        /* \"smart_contract/renewContract.sol\":1772:1879  function sendMessage() public check_landlord_tenant checkNoticeTime validity{\r... */\n      pop\n      tag_25\n      jump(tag_26)\n    tag_25:\n      stop\n        /* \"smart_contract/renewContract.sol\":1914:2022  function autoRenew() public checkNoNotice check_landlord_tenant {\r... */\n    tag_10:\n        /* \"smart_contract/renewContract.sol\":1085:1086  0 */\n      0x0\n        /* \"smart_contract/renewContract.sol\":1073:1081  ifNotice */\n      dup1\n      sload\n        /* \"smart_contract/renewContract.sol\":1073:1086  ifNotice == 0 */\n      eq\n        /* \"smart_contract/renewContract.sol\":1065:1087  require(ifNotice == 0) */\n      iszero\n      iszero\n      tag_28\n      jumpi\n      0x0\n      dup1\n      revert\n    tag_28:\n        /* \"smart_contract/renewContract.sol\":853:859  tenant */\n      0x4\n      0x0\n      swap1\n      sload\n      swap1\n      0x100\n      exp\n      swap1\n      div\n      0xffffffffffffffffffffffffffffffffffffffff\n      and\n        /* \"smart_contract/renewContract.sol\":839:859  msg.sender == tenant */\n      0xffffffffffffffffffffffffffffffffffffffff\n      and\n        /* \"smart_contract/renewContract.sol\":839:849  msg.sender */\n      caller\n        /* \"smart_contract/renewContract.sol\":839:859  msg.sender == tenant */\n      0xffffffffffffffffffffffffffffffffffffffff\n      and\n      eq\n        /* \"smart_contract/renewContract.sol\":839:885  msg.sender == tenant || msg.sender == landlord */\n      dup1\n      tag_30\n      jumpi\n      pop\n        /* \"smart_contract/renewContract.sol\":877:885  landlord */\n      0x3\n      0x0\n      swap1\n      sload\n      swap1\n      0x100\n      exp\n      swap1\n      div\n      0xffffffffffffffffffffffffffffffffffffffff\n      and\n        /* \"smart_contract/renewContract.sol\":863:885  msg.sender == landlord */\n      0xffffffffffffffffffffffffffffffffffffffff\n      and\n        /* \"smart_contract/renewContract.sol\":863:873  msg.sender */\n      caller\n        /* \"smart_contract/renewContract.sol\":863:885  msg.sender == landlord */\n      0xffffffffffffffffffffffffffffffffffffffff\n      and\n      eq\n        /* \"smart_contract/renewContract.sol\":839:885  msg.sender == tenant || msg.sender == landlord */\n    tag_30:\n        /* \"smart_contract/renewContract.sol\":831:886  require(msg.sender == tenant || msg.sender == landlord) */\n      iszero\n      iszero\n      tag_31\n      jumpi\n      0x0\n      dup1\n      revert\n    tag_31:\n        /* \"smart_contract/renewContract.sol\":158:166  356 days */\n      0x1d55600\n        /* \"smart_contract/renewContract.sol\":1989:1997  duration */\n      0x5\n      0x0\n        /* \"smart_contract/renewContract.sol\":1989:2014  duration += autoRenewTime */\n      dup3\n      dup3\n      sload\n      add\n      swap3\n      pop\n      pop\n      dup2\n      swap1\n      sstore\n      pop\n        /* \"smart_contract/renewContract.sol\":1914:2022  function autoRenew() public checkNoNotice check_landlord_tenant {\r... */\n      jump\t// out\n        /* \"smart_contract/renewContract.sol\":2056:2160  function agreeRenew() public check_landlord_tenant checkNotice validity{\r... */\n    tag_13:\n        /* \"smart_contract/renewContract.sol\":853:859  tenant */\n      0x4\n      0x0\n      swap1\n      sload\n      swap1\n      0x100\n      exp\n      swap1\n      div\n      0xffffffffffffffffffffffffffffffffffffffff\n      and\n        /* \"smart_contract/renewContract.sol\":839:859  msg.sender == tenant */\n      0xffffffffffffffffffffffffffffffffffffffff\n      and\n        /* \"smart_contract/renewContract.sol\":839:849  msg.sender */\n      caller\n        /* \"smart_contract/renewContract.sol\":839:859  msg.sender == tenant */\n      0xffffffffffffffffffffffffffffffffffffffff\n      and\n      eq\n        /* \"smart_contract/renewContract.sol\":839:885  msg.sender == tenant || msg.sender == landlord */\n      dup1\n      tag_34\n      jumpi\n      pop\n        /* \"smart_contract/renewContract.sol\":877:885  landlord */\n      0x3\n      0x0\n      swap1\n      sload\n      swap1\n      0x100\n      exp\n      swap1\n      div\n      0xffffffffffffffffffffffffffffffffffffffff\n      and\n        /* \"smart_contract/renewContract.sol\":863:885  msg.sender == landlord */\n      0xffffffffffffffffffffffffffffffffffffffff\n      and\n        /* \"smart_contract/renewContract.sol\":863:873  msg.sender */\n      caller\n        /* \"smart_contract/renewContract.sol\":863:885  msg.sender == landlord */\n      0xffffffffffffffffffffffffffffffffffffffff\n      and\n      eq\n        /* \"smart_contract/renewContract.sol\":839:885  msg.sender == tenant || msg.sender == landlord */\n    tag_34:\n        /* \"smart_contract/renewContract.sol\":831:886  require(msg.sender == tenant || msg.sender == landlord) */\n      iszero\n      iszero\n      tag_35\n      jumpi\n      0x0\n      dup1\n      revert\n    tag_35:\n        /* \"smart_contract/renewContract.sol\":1000:1001  0 */\n      0x0\n        /* \"smart_contract/renewContract.sol\":988:996  ifNotice */\n      dup1\n      sload\n        /* \"smart_contract/renewContract.sol\":988:1001  ifNotice != 0 */\n      eq\n      iszero\n        /* \"smart_contract/renewContract.sol\":980:1002  require(ifNotice != 0) */\n      iszero\n      iszero\n      tag_37\n      jumpi\n      0x0\n      dup1\n      revert\n    tag_37:\n        /* \"smart_contract/renewContract.sol\":1358:1373  block.timestamp */\n      timestamp\n        /* \"smart_contract/renewContract.sol\":1350:1354  1000 */\n      0x3e8\n        /* \"smart_contract/renewContract.sol\":1339:1347  duration */\n      sload(0x5)\n        /* \"smart_contract/renewContract.sol\":1339:1354  duration * 1000 */\n      mul\n        /* \"smart_contract/renewContract.sol\":511:521  1591521413 */\n      0x5edcb085\n        /* \"smart_contract/renewContract.sol\":1328:1354  signDate + duration * 1000 */\n      add\n        /* \"smart_contract/renewContract.sol\":1328:1373  signDate + duration * 1000 >= block.timestamp */\n      lt\n      iszero\n        /* \"smart_contract/renewContract.sol\":1320:1374  require(signDate + duration * 1000 >= block.timestamp) */\n      iszero\n      iszero\n      tag_39\n      jumpi\n      0x0\n      dup1\n      revert\n    tag_39:\n        /* \"smart_contract/renewContract.sol\":2138:2150  ifAgreeRenew */\n      0x1\n      0x0\n        /* \"smart_contract/renewContract.sol\":2138:2152  ifAgreeRenew++ */\n      dup2\n      sload\n      dup1\n      swap3\n      swap2\n      swap1\n      0x1\n      add\n      swap2\n      swap1\n      pop\n      sstore\n      pop\n        /* \"smart_contract/renewContract.sol\":2056:2160  function agreeRenew() public check_landlord_tenant checkNotice validity{\r... */\n      jump\t// out\n        /* \"smart_contract/renewContract.sol\":2513:2624  function finishContract() public check_landlord  checkIfAgreeFinish {\r... */\n    tag_16:\n        /* \"smart_contract/renewContract.sol\":664:672  landlord */\n      0x3\n      0x0\n      swap1\n      sload\n      swap1\n      0x100\n      exp\n      swap1\n      div\n      0xffffffffffffffffffffffffffffffffffffffff\n      and\n        /* \"smart_contract/renewContract.sol\":650:672  msg.sender == landlord */\n      0xffffffffffffffffffffffffffffffffffffffff\n      and\n        /* \"smart_contract/renewContract.sol\":650:660  msg.sender */\n      caller\n        /* \"smart_contract/renewContract.sol\":650:672  msg.sender == landlord */\n      0xffffffffffffffffffffffffffffffffffffffff\n      and\n      eq\n        /* \"smart_contract/renewContract.sol\":642:673  require(msg.sender == landlord) */\n      iszero\n      iszero\n      tag_42\n      jumpi\n      0x0\n      dup1\n      revert\n    tag_42:\n        /* \"smart_contract/renewContract.sol\":370:371  1 */\n      0x1\n        /* \"smart_contract/renewContract.sol\":1612:1625  ifAgreeFinish */\n      sload(0x2)\n        /* \"smart_contract/renewContract.sol\":1612:1647  ifAgreeFinish >= needAgreeFinishNum */\n      lt\n      iszero\n        /* \"smart_contract/renewContract.sol\":1604:1648  require(ifAgreeFinish >= needAgreeFinishNum) */\n      iszero\n      iszero\n      tag_44\n      jumpi\n      0x0\n      dup1\n      revert\n    tag_44:\n        /* \"smart_contract/renewContract.sol\":2605:2615  msg.sender */\n      caller\n        /* \"smart_contract/renewContract.sol\":2592:2616  selfdestruct(msg.sender) */\n      0xffffffffffffffffffffffffffffffffffffffff\n      and\n      selfdestruct\n        /* \"smart_contract/renewContract.sol\":2200:2306  function agreeFinish() public check_landlord_tenant checkNotice validity{\r... */\n    tag_19:\n        /* \"smart_contract/renewContract.sol\":853:859  tenant */\n      0x4\n      0x0\n      swap1\n      sload\n      swap1\n      0x100\n      exp\n      swap1\n      div\n      0xffffffffffffffffffffffffffffffffffffffff\n      and\n        /* \"smart_contract/renewContract.sol\":839:859  msg.sender == tenant */\n      0xffffffffffffffffffffffffffffffffffffffff\n      and\n        /* \"smart_contract/renewContract.sol\":839:849  msg.sender */\n      caller\n        /* \"smart_contract/renewContract.sol\":839:859  msg.sender == tenant */\n      0xffffffffffffffffffffffffffffffffffffffff\n      and\n      eq\n        /* \"smart_contract/renewContract.sol\":839:885  msg.sender == tenant || msg.sender == landlord */\n      dup1\n      tag_47\n      jumpi\n      pop\n        /* \"smart_contract/renewContract.sol\":877:885  landlord */\n      0x3\n      0x0\n      swap1\n      sload\n      swap1\n      0x100\n      exp\n      swap1\n      div\n      0xffffffffffffffffffffffffffffffffffffffff\n      and\n        /* \"smart_contract/renewContract.sol\":863:885  msg.sender == landlord */\n      0xffffffffffffffffffffffffffffffffffffffff\n      and\n        /* \"smart_contract/renewContract.sol\":863:873  msg.sender */\n      caller\n        /* \"smart_contract/renewContract.sol\":863:885  msg.sender == landlord */\n      0xffffffffffffffffffffffffffffffffffffffff\n      and\n      eq\n        /* \"smart_contract/renewContract.sol\":839:885  msg.sender == tenant || msg.sender == landlord */\n    tag_47:\n        /* \"smart_contract/renewContract.sol\":831:886  require(msg.sender == tenant || msg.sender == landlord) */\n      iszero\n      iszero\n      tag_48\n      jumpi\n      0x0\n      dup1\n      revert\n    tag_48:\n        /* \"smart_contract/renewContract.sol\":1000:1001  0 */\n      0x0\n        /* \"smart_contract/renewContract.sol\":988:996  ifNotice */\n      dup1\n      sload\n        /* \"smart_contract/renewContract.sol\":988:1001  ifNotice != 0 */\n      eq\n      iszero\n        /* \"smart_contract/renewContract.sol\":980:1002  require(ifNotice != 0) */\n      iszero\n      iszero\n      tag_50\n      jumpi\n      0x0\n      dup1\n      revert\n    tag_50:\n        /* \"smart_contract/renewContract.sol\":1358:1373  block.timestamp */\n      timestamp\n        /* \"smart_contract/renewContract.sol\":1350:1354  1000 */\n      0x3e8\n        /* \"smart_contract/renewContract.sol\":1339:1347  duration */\n      sload(0x5)\n        /* \"smart_contract/renewContract.sol\":1339:1354  duration * 1000 */\n      mul\n        /* \"smart_contract/renewContract.sol\":511:521  1591521413 */\n      0x5edcb085\n        /* \"smart_contract/renewContract.sol\":1328:1354  signDate + duration * 1000 */\n      add\n        /* \"smart_contract/renewContract.sol\":1328:1373  signDate + duration * 1000 >= block.timestamp */\n      lt\n      iszero\n        /* \"smart_contract/renewContract.sol\":1320:1374  require(signDate + duration * 1000 >= block.timestamp) */\n      iszero\n      iszero\n      tag_52\n      jumpi\n      0x0\n      dup1\n      revert\n    tag_52:\n        /* \"smart_contract/renewContract.sol\":2283:2296  ifAgreeFinish */\n      0x2\n      0x0\n        /* \"smart_contract/renewContract.sol\":2283:2298  ifAgreeFinish++ */\n      dup2\n      sload\n      dup1\n      swap3\n      swap2\n      swap1\n      0x1\n      add\n      swap2\n      swap1\n      pop\n      sstore\n      pop\n        /* \"smart_contract/renewContract.sol\":2200:2306  function agreeFinish() public check_landlord_tenant checkNotice validity{\r... */\n      jump\t// out\n        /* \"smart_contract/renewContract.sol\":2358:2485  function renewByConsult(uint256 renewalTime) public checkIfAgreeRenew check_landlord {\r... */\n    tag_23:\n        /* \"smart_contract/renewContract.sol\":324:325  2 */\n      0x2\n        /* \"smart_contract/renewContract.sol\":1504:1516  ifAgreeRenew */\n      sload(0x1)\n        /* \"smart_contract/renewContract.sol\":1504:1537  ifAgreeRenew >= needAgreeRenewNum */\n      lt\n      iszero\n        /* \"smart_contract/renewContract.sol\":1496:1538  require(ifAgreeRenew >= needAgreeRenewNum) */\n      iszero\n      iszero\n      tag_55\n      jumpi\n      0x0\n      dup1\n      revert\n    tag_55:\n        /* \"smart_contract/renewContract.sol\":664:672  landlord */\n      0x3\n      0x0\n      swap1\n      sload\n      swap1\n      0x100\n      exp\n      swap1\n      div\n      0xffffffffffffffffffffffffffffffffffffffff\n      and\n        /* \"smart_contract/renewContract.sol\":650:672  msg.sender == landlord */\n      0xffffffffffffffffffffffffffffffffffffffff\n      and\n        /* \"smart_contract/renewContract.sol\":650:660  msg.sender */\n      caller\n        /* \"smart_contract/renewContract.sol\":650:672  msg.sender == landlord */\n      0xffffffffffffffffffffffffffffffffffffffff\n      and\n      eq\n        /* \"smart_contract/renewContract.sol\":642:673  require(msg.sender == landlord) */\n      iszero\n      iszero\n      tag_57\n      jumpi\n      0x0\n      dup1\n      revert\n    tag_57:\n        /* \"smart_contract/renewContract.sol\":2466:2477  renewalTime */\n      dup1\n        /* \"smart_contract/renewContract.sol\":2454:2462  duration */\n      0x5\n      0x0\n        /* \"smart_contract/renewContract.sol\":2454:2477  duration += renewalTime */\n      dup3\n      dup3\n      sload\n      add\n      swap3\n      pop\n      pop\n      dup2\n      swap1\n      sstore\n      pop\n        /* \"smart_contract/renewContract.sol\":2358:2485  function renewByConsult(uint256 renewalTime) public checkIfAgreeRenew check_landlord {\r... */\n      pop\n      jump\t// out\n        /* \"smart_contract/renewContract.sol\":1772:1879  function sendMessage() public check_landlord_tenant checkNoticeTime validity{\r... */\n    tag_26:\n        /* \"smart_contract/renewContract.sol\":853:859  tenant */\n      0x4\n      0x0\n      swap1\n      sload\n      swap1\n      0x100\n      exp\n      swap1\n      div\n      0xffffffffffffffffffffffffffffffffffffffff\n      and\n        /* \"smart_contract/renewContract.sol\":839:859  msg.sender == tenant */\n      0xffffffffffffffffffffffffffffffffffffffff\n      and\n        /* \"smart_contract/renewContract.sol\":839:849  msg.sender */\n      caller\n        /* \"smart_contract/renewContract.sol\":839:859  msg.sender == tenant */\n      0xffffffffffffffffffffffffffffffffffffffff\n      and\n      eq\n        /* \"smart_contract/renewContract.sol\":839:885  msg.sender == tenant || msg.sender == landlord */\n      dup1\n      tag_60\n      jumpi\n      pop\n        /* \"smart_contract/renewContract.sol\":877:885  landlord */\n      0x3\n      0x0\n      swap1\n      sload\n      swap1\n      0x100\n      exp\n      swap1\n      div\n      0xffffffffffffffffffffffffffffffffffffffff\n      and\n        /* \"smart_contract/renewContract.sol\":863:885  msg.sender == landlord */\n      0xffffffffffffffffffffffffffffffffffffffff\n      and\n        /* \"smart_contract/renewContract.sol\":863:873  msg.sender */\n      caller\n        /* \"smart_contract/renewContract.sol\":863:885  msg.sender == landlord */\n      0xffffffffffffffffffffffffffffffffffffffff\n      and\n      eq\n        /* \"smart_contract/renewContract.sol\":839:885  msg.sender == tenant || msg.sender == landlord */\n    tag_60:\n        /* \"smart_contract/renewContract.sol\":831:886  require(msg.sender == tenant || msg.sender == landlord) */\n      iszero\n      iszero\n      tag_61\n      jumpi\n      0x0\n      dup1\n      revert\n    tag_61:\n        /* \"smart_contract/renewContract.sol\":1217:1232  block.timestamp */\n      timestamp\n        /* \"smart_contract/renewContract.sol\":1209:1213  1000 */\n      0x3e8\n        /* \"smart_contract/renewContract.sol\":210:217  30 days */\n      0x278d00\n        /* \"smart_contract/renewContract.sol\":1189:1213  advanceNoticeTime * 1000 */\n      mul\n        /* \"smart_contract/renewContract.sol\":1182:1186  1000 */\n      0x3e8\n        /* \"smart_contract/renewContract.sol\":1171:1179  duration */\n      sload(0x5)\n        /* \"smart_contract/renewContract.sol\":1171:1186  duration * 1000 */\n      mul\n        /* \"smart_contract/renewContract.sol\":511:521  1591521413 */\n      0x5edcb085\n        /* \"smart_contract/renewContract.sol\":1160:1186  signDate + duration * 1000 */\n      add\n        /* \"smart_contract/renewContract.sol\":1160:1213  signDate + duration * 1000 - advanceNoticeTime * 1000 */\n      sub\n        /* \"smart_contract/renewContract.sol\":1160:1232  signDate + duration * 1000 - advanceNoticeTime * 1000 >= block.timestamp */\n      lt\n      iszero\n        /* \"smart_contract/renewContract.sol\":1152:1233  require(signDate + duration * 1000 - advanceNoticeTime * 1000 >= block.timestamp) */\n      iszero\n      iszero\n      tag_63\n      jumpi\n      0x0\n      dup1\n      revert\n    tag_63:\n        /* \"smart_contract/renewContract.sol\":1358:1373  block.timestamp */\n      timestamp\n        /* \"smart_contract/renewContract.sol\":1350:1354  1000 */\n      0x3e8\n        /* \"smart_contract/renewContract.sol\":1339:1347  duration */\n      sload(0x5)\n        /* \"smart_contract/renewContract.sol\":1339:1354  duration * 1000 */\n      mul\n        /* \"smart_contract/renewContract.sol\":511:521  1591521413 */\n      0x5edcb085\n        /* \"smart_contract/renewContract.sol\":1328:1354  signDate + duration * 1000 */\n      add\n        /* \"smart_contract/renewContract.sol\":1328:1373  signDate + duration * 1000 >= block.timestamp */\n      lt\n      iszero\n        /* \"smart_contract/renewContract.sol\":1320:1374  require(signDate + duration * 1000 >= block.timestamp) */\n      iszero\n      iszero\n      tag_65\n      jumpi\n      0x0\n      dup1\n      revert\n    tag_65:\n        /* \"smart_contract/renewContract.sol\":1870:1871  1 */\n      0x1\n        /* \"smart_contract/renewContract.sol\":1859:1867  ifNotice */\n      0x0\n        /* \"smart_contract/renewContract.sol\":1859:1871  ifNotice = 1 */\n      dup2\n      swap1\n      sstore\n      pop\n        /* \"smart_contract/renewContract.sol\":1772:1879  function sendMessage() public check_landlord_tenant checkNoticeTime validity{\r... */\n      jump\t// out\n\n    auxdata: 0xa165627a7a72305820c959a54719b540083ff27e5edddfb7e0daa1414854145b8eac3112aaa04c49090029\n}\n",
				"bytecode": {
					"linkReferences": {},
					"object": "608060405260008055600060015560006002556301e1338060055534801561002657600080fd5b5061061e806100366000396000f3fe608060405260043610610078576000357c0100000000000000000000000000000000000000000000000000000000900463ffffffff1680630708f35d1461007d57806337260d8e146100945780638a5d815e146100ab578063b3a2ff2a146100c2578063d124711d146100d9578063e5aed28a14610114575b600080fd5b34801561008957600080fd5b5061009261012b565b005b3480156100a057600080fd5b506100a9610205565b005b3480156100b757600080fd5b506100c06102f9565b005b3480156100ce57600080fd5b506100d7610380565b005b3480156100e557600080fd5b50610112600480360360208110156100fc57600080fd5b8101908080359060200190929190505050610474565b005b34801561012057600080fd5b506101296104f5565b005b6000805414151561013b57600080fd5b600460009054906101000a900473ffffffffffffffffffffffffffffffffffffffff1673ffffffffffffffffffffffffffffffffffffffff163373ffffffffffffffffffffffffffffffffffffffff1614806101e45750600360009054906101000a900473ffffffffffffffffffffffffffffffffffffffff1673ffffffffffffffffffffffffffffffffffffffff163373ffffffffffffffffffffffffffffffffffffffff16145b15156101ef57600080fd5b6301d55600600560008282540192505081905550565b600460009054906101000a900473ffffffffffffffffffffffffffffffffffffffff1673ffffffffffffffffffffffffffffffffffffffff163373ffffffffffffffffffffffffffffffffffffffff1614806102ae5750600360009054906101000a900473ffffffffffffffffffffffffffffffffffffffff1673ffffffffffffffffffffffffffffffffffffffff163373ffffffffffffffffffffffffffffffffffffffff16145b15156102b957600080fd5b60008054141515156102ca57600080fd5b426103e860055402635edcb08501101515156102e557600080fd5b600160008154809291906001019190505550565b600360009054906101000a900473ffffffffffffffffffffffffffffffffffffffff1673ffffffffffffffffffffffffffffffffffffffff163373ffffffffffffffffffffffffffffffffffffffff1614151561035557600080fd5b60016002541015151561036757600080fd5b3373ffffffffffffffffffffffffffffffffffffffff16ff5b600460009054906101000a900473ffffffffffffffffffffffffffffffffffffffff1673ffffffffffffffffffffffffffffffffffffffff163373ffffffffffffffffffffffffffffffffffffffff1614806104295750600360009054906101000a900473ffffffffffffffffffffffffffffffffffffffff1673ffffffffffffffffffffffffffffffffffffffff163373ffffffffffffffffffffffffffffffffffffffff16145b151561043457600080fd5b600080541415151561044557600080fd5b426103e860055402635edcb085011015151561046057600080fd5b600260008154809291906001019190505550565b60026001541015151561048657600080fd5b600360009054906101000a900473ffffffffffffffffffffffffffffffffffffffff1673ffffffffffffffffffffffffffffffffffffffff163373ffffffffffffffffffffffffffffffffffffffff161415156104e257600080fd5b8060056000828254019250508190555050565b600460009054906101000a900473ffffffffffffffffffffffffffffffffffffffff1673ffffffffffffffffffffffffffffffffffffffff163373ffffffffffffffffffffffffffffffffffffffff16148061059e5750600360009054906101000a900473ffffffffffffffffffffffffffffffffffffffff1673ffffffffffffffffffffffffffffffffffffffff163373ffffffffffffffffffffffffffffffffffffffff16145b15156105a957600080fd5b426103e862278d00026103e860055402635edcb0850103101515156105cd57600080fd5b426103e860055402635edcb08501101515156105e857600080fd5b600160008190555056fea165627a7a72305820c959a54719b540083ff27e5edddfb7e0daa1414854145b8eac3112aaa04c49090029",
					"opcodes": "PUSH1 0x80 PUSH1 0x40 MSTORE PUSH1 0x0 DUP1 SSTORE PUSH1 0x0 PUSH1 0x1 SSTORE PUSH1 0x0 PUSH1 0x2 SSTORE PUSH4 0x1E13380 PUSH1 0x5 SSTORE CALLVALUE DUP1 ISZERO PUSH2 0x26 JUMPI PUSH1 0x0 DUP1 REVERT JUMPDEST POP PUSH2 0x61E DUP1 PUSH2 0x36 PUSH1 0x0 CODECOPY PUSH1 0x0 RETURN INVALID PUSH1 0x80 PUSH1 0x40 MSTORE PUSH1 0x4 CALLDATASIZE LT PUSH2 0x78 JUMPI PUSH1 0x0 CALLDATALOAD PUSH29 0x100000000000000000000000000000000000000000000000000000000 SWAP1 DIV PUSH4 0xFFFFFFFF AND DUP1 PUSH4 0x708F35D EQ PUSH2 0x7D JUMPI DUP1 PUSH4 0x37260D8E EQ PUSH2 0x94 JUMPI DUP1 PUSH4 0x8A5D815E EQ PUSH2 0xAB JUMPI DUP1 PUSH4 0xB3A2FF2A EQ PUSH2 0xC2 JUMPI DUP1 PUSH4 0xD124711D EQ PUSH2 0xD9 JUMPI DUP1 PUSH4 0xE5AED28A EQ PUSH2 0x114 JUMPI JUMPDEST PUSH1 0x0 DUP1 REVERT JUMPDEST CALLVALUE DUP1 ISZERO PUSH2 0x89 JUMPI PUSH1 0x0 DUP1 REVERT JUMPDEST POP PUSH2 0x92 PUSH2 0x12B JUMP JUMPDEST STOP JUMPDEST CALLVALUE DUP1 ISZERO PUSH2 0xA0 JUMPI PUSH1 0x0 DUP1 REVERT JUMPDEST POP PUSH2 0xA9 PUSH2 0x205 JUMP JUMPDEST STOP JUMPDEST CALLVALUE DUP1 ISZERO PUSH2 0xB7 JUMPI PUSH1 0x0 DUP1 REVERT JUMPDEST POP PUSH2 0xC0 PUSH2 0x2F9 JUMP JUMPDEST STOP JUMPDEST CALLVALUE DUP1 ISZERO PUSH2 0xCE JUMPI PUSH1 0x0 DUP1 REVERT JUMPDEST POP PUSH2 0xD7 PUSH2 0x380 JUMP JUMPDEST STOP JUMPDEST CALLVALUE DUP1 ISZERO PUSH2 0xE5 JUMPI PUSH1 0x0 DUP1 REVERT JUMPDEST POP PUSH2 0x112 PUSH1 0x4 DUP1 CALLDATASIZE SUB PUSH1 0x20 DUP2 LT ISZERO PUSH2 0xFC JUMPI PUSH1 0x0 DUP1 REVERT JUMPDEST DUP2 ADD SWAP1 DUP1 DUP1 CALLDATALOAD SWAP1 PUSH1 0x20 ADD SWAP1 SWAP3 SWAP2 SWAP1 POP POP POP PUSH2 0x474 JUMP JUMPDEST STOP JUMPDEST CALLVALUE DUP1 ISZERO PUSH2 0x120 JUMPI PUSH1 0x0 DUP1 REVERT JUMPDEST POP PUSH2 0x129 PUSH2 0x4F5 JUMP JUMPDEST STOP JUMPDEST PUSH1 0x0 DUP1 SLOAD EQ ISZERO ISZERO PUSH2 0x13B JUMPI PUSH1 0x0 DUP1 REVERT JUMPDEST PUSH1 0x4 PUSH1 0x0 SWAP1 SLOAD SWAP1 PUSH2 0x100 EXP SWAP1 DIV PUSH20 0xFFFFFFFFFFFFFFFFFFFFFFFFFFFFFFFFFFFFFFFF AND PUSH20 0xFFFFFFFFFFFFFFFFFFFFFFFFFFFFFFFFFFFFFFFF AND CALLER PUSH20 0xFFFFFFFFFFFFFFFFFFFFFFFFFFFFFFFFFFFFFFFF AND EQ DUP1 PUSH2 0x1E4 JUMPI POP PUSH1 0x3 PUSH1 0x0 SWAP1 SLOAD SWAP1 PUSH2 0x100 EXP SWAP1 DIV PUSH20 0xFFFFFFFFFFFFFFFFFFFFFFFFFFFFFFFFFFFFFFFF AND PUSH20 0xFFFFFFFFFFFFFFFFFFFFFFFFFFFFFFFFFFFFFFFF AND CALLER PUSH20 0xFFFFFFFFFFFFFFFFFFFFFFFFFFFFFFFFFFFFFFFF AND EQ JUMPDEST ISZERO ISZERO PUSH2 0x1EF JUMPI PUSH1 0x0 DUP1 REVERT JUMPDEST PUSH4 0x1D55600 PUSH1 0x5 PUSH1 0x0 DUP3 DUP3 SLOAD ADD SWAP3 POP POP DUP2 SWAP1 SSTORE POP JUMP JUMPDEST PUSH1 0x4 PUSH1 0x0 SWAP1 SLOAD SWAP1 PUSH2 0x100 EXP SWAP1 DIV PUSH20 0xFFFFFFFFFFFFFFFFFFFFFFFFFFFFFFFFFFFFFFFF AND PUSH20 0xFFFFFFFFFFFFFFFFFFFFFFFFFFFFFFFFFFFFFFFF AND CALLER PUSH20 0xFFFFFFFFFFFFFFFFFFFFFFFFFFFFFFFFFFFFFFFF AND EQ DUP1 PUSH2 0x2AE JUMPI POP PUSH1 0x3 PUSH1 0x0 SWAP1 SLOAD SWAP1 PUSH2 0x100 EXP SWAP1 DIV PUSH20 0xFFFFFFFFFFFFFFFFFFFFFFFFFFFFFFFFFFFFFFFF AND PUSH20 0xFFFFFFFFFFFFFFFFFFFFFFFFFFFFFFFFFFFFFFFF AND CALLER PUSH20 0xFFFFFFFFFFFFFFFFFFFFFFFFFFFFFFFFFFFFFFFF AND EQ JUMPDEST ISZERO ISZERO PUSH2 0x2B9 JUMPI PUSH1 0x0 DUP1 REVERT JUMPDEST PUSH1 0x0 DUP1 SLOAD EQ ISZERO ISZERO ISZERO PUSH2 0x2CA JUMPI PUSH1 0x0 DUP1 REVERT JUMPDEST TIMESTAMP PUSH2 0x3E8 PUSH1 0x5 SLOAD MUL PUSH4 0x5EDCB085 ADD LT ISZERO ISZERO ISZERO PUSH2 0x2E5 JUMPI PUSH1 0x0 DUP1 REVERT JUMPDEST PUSH1 0x1 PUSH1 0x0 DUP2 SLOAD DUP1 SWAP3 SWAP2 SWAP1 PUSH1 0x1 ADD SWAP2 SWAP1 POP SSTORE POP JUMP JUMPDEST PUSH1 0x3 PUSH1 0x0 SWAP1 SLOAD SWAP1 PUSH2 0x100 EXP SWAP1 DIV PUSH20 0xFFFFFFFFFFFFFFFFFFFFFFFFFFFFFFFFFFFFFFFF AND PUSH20 0xFFFFFFFFFFFFFFFFFFFFFFFFFFFFFFFFFFFFFFFF AND CALLER PUSH20 0xFFFFFFFFFFFFFFFFFFFFFFFFFFFFFFFFFFFFFFFF AND EQ ISZERO ISZERO PUSH2 0x355 JUMPI PUSH1 0x0 DUP1 REVERT JUMPDEST PUSH1 0x1 PUSH1 0x2 SLOAD LT ISZERO ISZERO ISZERO PUSH2 0x367 JUMPI PUSH1 0x0 DUP1 REVERT JUMPDEST CALLER PUSH20 0xFFFFFFFFFFFFFFFFFFFFFFFFFFFFFFFFFFFFFFFF AND SELFDESTRUCT JUMPDEST PUSH1 0x4 PUSH1 0x0 SWAP1 SLOAD SWAP1 PUSH2 0x100 EXP SWAP1 DIV PUSH20 0xFFFFFFFFFFFFFFFFFFFFFFFFFFFFFFFFFFFFFFFF AND PUSH20 0xFFFFFFFFFFFFFFFFFFFFFFFFFFFFFFFFFFFFFFFF AND CALLER PUSH20 0xFFFFFFFFFFFFFFFFFFFFFFFFFFFFFFFFFFFFFFFF AND EQ DUP1 PUSH2 0x429 JUMPI POP PUSH1 0x3 PUSH1 0x0 SWAP1 SLOAD SWAP1 PUSH2 0x100 EXP SWAP1 DIV PUSH20 0xFFFFFFFFFFFFFFFFFFFFFFFFFFFFFFFFFFFFFFFF AND PUSH20 0xFFFFFFFFFFFFFFFFFFFFFFFFFFFFFFFFFFFFFFFF AND CALLER PUSH20 0xFFFFFFFFFFFFFFFFFFFFFFFFFFFFFFFFFFFFFFFF AND EQ JUMPDEST ISZERO ISZERO PUSH2 0x434 JUMPI PUSH1 0x0 DUP1 REVERT JUMPDEST PUSH1 0x0 DUP1 SLOAD EQ ISZERO ISZERO ISZERO PUSH2 0x445 JUMPI PUSH1 0x0 DUP1 REVERT JUMPDEST TIMESTAMP PUSH2 0x3E8 PUSH1 0x5 SLOAD MUL PUSH4 0x5EDCB085 ADD LT ISZERO ISZERO ISZERO PUSH2 0x460 JUMPI PUSH1 0x0 DUP1 REVERT JUMPDEST PUSH1 0x2 PUSH1 0x0 DUP2 SLOAD DUP1 SWAP3 SWAP2 SWAP1 PUSH1 0x1 ADD SWAP2 SWAP1 POP SSTORE POP JUMP JUMPDEST PUSH1 0x2 PUSH1 0x1 SLOAD LT ISZERO ISZERO ISZERO PUSH2 0x486 JUMPI PUSH1 0x0 DUP1 REVERT JUMPDEST PUSH1 0x3 PUSH1 0x0 SWAP1 SLOAD SWAP1 PUSH2 0x100 EXP SWAP1 DIV PUSH20 0xFFFFFFFFFFFFFFFFFFFFFFFFFFFFFFFFFFFFFFFF AND PUSH20 0xFFFFFFFFFFFFFFFFFFFFFFFFFFFFFFFFFFFFFFFF AND CALLER PUSH20 0xFFFFFFFFFFFFFFFFFFFFFFFFFFFFFFFFFFFFFFFF AND EQ ISZERO ISZERO PUSH2 0x4E2 JUMPI PUSH1 0x0 DUP1 REVERT JUMPDEST DUP1 PUSH1 0x5 PUSH1 0x0 DUP3 DUP3 SLOAD ADD SWAP3 POP POP DUP2 SWAP1 SSTORE POP POP JUMP JUMPDEST PUSH1 0x4 PUSH1 0x0 SWAP1 SLOAD SWAP1 PUSH2 0x100 EXP SWAP1 DIV PUSH20 0xFFFFFFFFFFFFFFFFFFFFFFFFFFFFFFFFFFFFFFFF AND PUSH20 0xFFFFFFFFFFFFFFFFFFFFFFFFFFFFFFFFFFFFFFFF AND CALLER PUSH20 0xFFFFFFFFFFFFFFFFFFFFFFFFFFFFFFFFFFFFFFFF AND EQ DUP1 PUSH2 0x59E JUMPI POP PUSH1 0x3 PUSH1 0x0 SWAP1 SLOAD SWAP1 PUSH2 0x100 EXP SWAP1 DIV PUSH20 0xFFFFFFFFFFFFFFFFFFFFFFFFFFFFFFFFFFFFFFFF AND PUSH20 0xFFFFFFFFFFFFFFFFFFFFFFFFFFFFFFFFFFFFFFFF AND CALLER PUSH20 0xFFFFFFFFFFFFFFFFFFFFFFFFFFFFFFFFFFFFFFFF AND EQ JUMPDEST ISZERO ISZERO PUSH2 0x5A9 JUMPI PUSH1 0x0 DUP1 REVERT JUMPDEST TIMESTAMP PUSH2 0x3E8 PUSH3 0x278D00 MUL PUSH2 0x3E8 PUSH1 0x5 SLOAD MUL PUSH4 0x5EDCB085 ADD SUB LT ISZERO ISZERO ISZERO PUSH2 0x5CD JUMPI PUSH1 0x0 DUP1 REVERT JUMPDEST TIMESTAMP PUSH2 0x3E8 PUSH1 0x5 SLOAD MUL PUSH4 0x5EDCB085 ADD LT ISZERO ISZERO ISZERO PUSH2 0x5E8 JUMPI PUSH1 0x0 DUP1 REVERT JUMPDEST PUSH1 0x1 PUSH1 0x0 DUP2 SWAP1 SSTORE POP JUMP INVALID LOG1 PUSH6 0x627A7A723058 KECCAK256 0xc9 MSIZE 0xa5 0x47 NOT 0xb5 BLOCKHASH ADDMOD EXTCODEHASH CALLCODE PUSH31 0x5EDDDFB7E0DAA1414854145B8EAC3112AAA04C490900290000000000000000 "
				},
				"gasEstimates": {
					"creation": {
						"codeDepositCost": "313200",
						"executionCost": "35373",
						"totalCost": "348573"
					},
					"external": {
						"agreeFinish()": "21464",
						"agreeRenew()": "21420",
						"autoRenew()": "21146",
						"finishContract()": "30684",
						"renewByConsult(uint256)": "21046",
						"sendMessage()": "21312"
					}
				},
				"methodIdentifiers": {
					"agreeFinish()": "b3a2ff2a",
					"agreeRenew()": "37260d8e",
					"autoRenew()": "0708f35d",
					"finishContract()": "8a5d815e",
					"renewByConsult(uint256)": "d124711d",
					"sendMessage()": "e5aed28a"
				}
			},
			"userdoc": {
				"methods": {}
			}
		}
	}
}